{
  "contractName": "ViolaCrowdSale",
  "abi": [
    {
      "constant": true,
      "inputs": [
        {
          "name": "_tokenAddress",
          "type": "address"
        }
      ],
      "name": "requireCustomerId",
      "outputs": [
        {
          "name": "",
          "type": "bool"
        }
      ],
      "payable": false,
      "stateMutability": "view",
      "type": "function"
    },
    {
      "constant": false,
      "inputs": [
        {
          "name": "_tokenAddress",
          "type": "address"
        }
      ],
      "name": "setToken",
      "outputs": [
        {
          "name": "",
          "type": "uint256"
        }
      ],
      "payable": false,
      "stateMutability": "nonpayable",
      "type": "function"
    },
    {
      "constant": true,
      "inputs": [],
      "name": "rate",
      "outputs": [
        {
          "name": "",
          "type": "uint256"
        }
      ],
      "payable": false,
      "stateMutability": "view",
      "type": "function"
    },
    {
      "constant": true,
      "inputs": [],
      "name": "endTime",
      "outputs": [
        {
          "name": "",
          "type": "uint256"
        }
      ],
      "payable": false,
      "stateMutability": "view",
      "type": "function"
    },
    {
      "constant": true,
      "inputs": [],
      "name": "weiRaised",
      "outputs": [
        {
          "name": "",
          "type": "uint256"
        }
      ],
      "payable": false,
      "stateMutability": "view",
      "type": "function"
    },
    {
      "constant": true,
      "inputs": [
        {
          "name": "beneficiary",
          "type": "address"
        },
        {
          "name": "_endTime",
          "type": "uint256"
        },
        {
          "name": "_rate",
          "type": "uint256"
        },
        {
          "name": "_wallet",
          "type": "address"
        }
      ],
      "name": "wallet",
      "outputs": [
        {
          "name": "",
          "type": "address"
        }
      ],
      "payable": false,
      "stateMutability": "view",
      "type": "function"
    },
    {
      "constant": true,
      "inputs": [
        {
          "name": "_user",
          "type": "address"
        }
      ],
      "name": "getAddressCap",
      "outputs": [
        {
          "name": "",
          "type": "uint256"
        }
      ],
      "payable": false,
      "stateMutability": "view",
      "type": "function"
    },
    {
      "constant": true,
      "inputs": [],
      "name": "startTime",
      "outputs": [
        {
          "name": "",
          "type": "uint256"
        }
      ],
      "payable": false,
      "stateMutability": "view",
      "type": "function"
    },
    {
      "constant": true,
      "inputs": [
        {
          "name": "beneficiary",
          "type": "address"
        },
        {
          "name": "_endTime",
          "type": "uint256"
        },
        {
          "name": "_rate",
          "type": "uint256"
        },
        {
          "name": "_wallet",
          "type": "address"
        }
      ],
      "name": "owner",
      "outputs": [
        {
          "name": "",
          "type": "address"
        }
      ],
      "payable": false,
      "stateMutability": "view",
      "type": "function"
    },
    {
      "payable": false,
      "stateMutability": "view",
      "type": "function",
      "constant": true,
      "inputs": [],
      "name": "myToken",
      "outputs": [
        {
          "name": "",
          "type": "address"
        }
      ]
    },
    {
      "anonymous": false,
      "inputs": [
        {
          "indexed": true,
          "name": "beneficiary",
          "type": "address"
        },
        {
          "indexed": true,
          "name": "_endTime",
          "type": "uint256"
        },
        {
          "indexed": false,
          "name": "_rate",
          "type": "uint256"
        },
        {
          "indexed": false,
          "name": "_wallet",
          "type": "address"
        }
      ],
      "name": "isCrowdsaleFull",
      "type": "function",
      "payable": false,
      "stateMutability": "view",
      "constant": true,
      "outputs": [
        {
          "name": "",
          "type": "bool"
        }
      ]
    },
    {
      "payable": false,
      "stateMutability": "view",
      "type": "function",
      "constant": true,
      "inputs": [],
      "name": "getTokensLeft",
      "outputs": [
        {
          "name": "",
          "type": "uint256"
        }
      ]
    },
    {
      "anonymous": false,
      "inputs": [
        {
          "indexed": true,
          "name": "_startTime",
          "type": "uint256"
        },
        {
          "indexed": true,
          "name": "_endTime",
          "type": "uint256"
        },
        {
          "indexed": false,
          "name": "_rate",
          "type": "uint256"
        },
        {
          "indexed": false,
          "name": "_wallet",
          "type": "address"
        }
      ],
      "name": "capRefreshPeriod",
      "type": "function",
      "payable": false,
      "stateMutability": "view",
      "constant": true,
      "outputs": [
        {
          "name": "",
          "type": "uint256"
        }
      ]
    },
    {
      "payable": true,
      "stateMutability": "payable",
      "type": "function",
      "inputs": [
        {
          "name": "beneficiary",
          "type": "address"
        },
        {
          "name": "_endTime",
          "type": "uint256"
        },
        {
          "name": "_rate",
          "type": "uint256"
        },
        {
          "name": "_wallet",
          "type": "address"
        }
      ],
      "constant": false,
      "name": "buyTokens",
      "outputs": []
    },
    {
      "anonymous": false,
      "inputs": [
        {
          "indexed": true,
          "name": "purchaser",
          "type": "address"
        },
        {
          "indexed": true,
          "name": "beneficiary",
          "type": "address"
        },
        {
          "indexed": false,
          "name": "value",
          "type": "uint256"
        },
        {
          "indexed": false,
          "name": "amount",
          "type": "uint256"
        }
      ],
      "name": "hasEnded",
      "type": "function",
      "payable": false,
      "stateMutability": "view",
      "constant": true,
      "outputs": [
        {
          "name": "",
          "type": "bool"
        }
      ]
    },
    {
      "anonymous": false,
      "inputs": [
        {
          "indexed": true,
          "name": "purchaser",
          "type": "address"
        },
        {
          "indexed": true,
          "name": "beneficiary",
          "type": "address"
        },
        {
          "indexed": false,
          "name": "value",
          "type": "uint256"
        },
        {
          "indexed": false,
          "name": "amount",
          "type": "uint256"
        }
      ],
      "name": "startCrowdSale",
      "type": "function",
      "constant": false,
      "outputs": [],
      "payable": false,
      "stateMutability": "nonpayable"
    },
    {
      "constant": false,
      "inputs": [
        {
          "name": "newOwner",
          "type": "address"
        }
      ],
      "name": "transferOwnership",
      "outputs": [],
      "payable": false,
      "stateMutability": "nonpayable",
      "type": "function"
    },
    {
      "constant": false,
      "inputs": [
        {
          "name": "_user",
          "type": "address"
        },
        {
          "name": "_cap",
          "type": "uint256"
        }
      ],
      "name": "setWhitelistAddress",
      "outputs": [],
      "payable": false,
      "stateMutability": "nonpayable",
      "type": "function"
    },
    {
      "constant": true,
      "inputs": [
        {
          "name": "",
          "type": "address"
        }
      ],
      "name": "addressCap",
      "outputs": [
        {
          "name": "",
          "type": "uint256"
        }
      ],
      "payable": false,
      "stateMutability": "view",
      "type": "function"
    },
    {
      "inputs": [
        {
          "name": "_startTime",
          "type": "uint256"
        },
        {
          "name": "_endTime",
          "type": "uint256"
        },
        {
          "name": "_rate",
          "type": "uint256"
        },
        {
          "name": "_wallet",
          "type": "address"
        }
      ],
      "payable": false,
      "stateMutability": "nonpayable",
      "type": "constructor"
    },
    {
      "payable": true,
      "stateMutability": "payable",
      "type": "fallback"
    },
    {
      "anonymous": false,
      "inputs": [
        {
          "indexed": true,
          "name": "purchaser",
          "type": "address"
        },
        {
          "indexed": true,
          "name": "beneficiary",
          "type": "address"
        },
        {
          "indexed": false,
          "name": "value",
          "type": "uint256"
        },
        {
          "indexed": false,
          "name": "amount",
          "type": "uint256"
        }
      ],
      "name": "TokenPurchase",
      "type": "event"
    },
    {
      "anonymous": false,
      "inputs": [
        {
          "indexed": true,
          "name": "previousOwner",
          "type": "address"
        },
        {
          "indexed": true,
          "name": "newOwner",
          "type": "address"
        }
      ],
      "name": "OwnershipTransferred",
      "type": "event"
    }
  ],
  "bytecode": "0x606060405262015180600855341561001657600080fd5b60405160808061107483398101604052808051906020019091908051906020019091908051906020019091908051906020019091905050336000806101000a81548173ffffffffffffffffffffffffffffffffffffffff021916908373ffffffffffffffffffffffffffffffffffffffff16021790555042841015151561009c57600080fd5b8383101515156100ab57600080fd5b6000821115156100ba57600080fd5b600073ffffffffffffffffffffffffffffffffffffffff168173ffffffffffffffffffffffffffffffffffffffff16141515156100f657600080fd5b83600381905550826004819055508160068190555080600560006101000a81548173ffffffffffffffffffffffffffffffffffffffff021916908373ffffffffffffffffffffffffffffffffffffffff16021790555050505050610f158061015f6000396000f300606060405260043610610107576000357c0100000000000000000000000000000000000000000000000000000000900463ffffffff16806303ca0eed14610112578063144fa6d71461013f5780632c4e722e146101785780633197cbb6146101a15780634042b66f146101ca578063521eb273146101f3578063554036111461024857806378e97925146102955780638da5cb5b146102be578063b8fcf93714610313578063d5d0902114610368578063de5f986614610395578063e86822e0146103be578063ec8ac4d8146103e7578063ecb70fb714610415578063f2b45ac114610442578063f2fde38b14610457578063fc43bbfb14610490578063fc87c766146104d2575b6101103361051f565b005b341561011d57600080fd5b6101256106d6565b604051808215151515815260200191505060405180910390f35b341561014a57600080fd5b610176600480803573ffffffffffffffffffffffffffffffffffffffff169060200190919050506106e9565b005b341561018357600080fd5b61018b6107e5565b6040518082815260200191505060405180910390f35b34156101ac57600080fd5b6101b46107eb565b6040518082815260200191505060405180910390f35b34156101d557600080fd5b6101dd6107f1565b6040518082815260200191505060405180910390f35b34156101fe57600080fd5b6102066107f7565b604051808273ffffffffffffffffffffffffffffffffffffffff1673ffffffffffffffffffffffffffffffffffffffff16815260200191505060405180910390f35b341561025357600080fd5b61027f600480803573ffffffffffffffffffffffffffffffffffffffff1690602001909190505061081d565b6040518082815260200191505060405180910390f35b34156102a057600080fd5b6102a861087a565b6040518082815260200191505060405180910390f35b34156102c957600080fd5b6102d1610880565b604051808273ffffffffffffffffffffffffffffffffffffffff1673ffffffffffffffffffffffffffffffffffffffff16815260200191505060405180910390f35b341561031e57600080fd5b6103266108a5565b604051808273ffffffffffffffffffffffffffffffffffffffff1673ffffffffffffffffffffffffffffffffffffffff16815260200191505060405180910390f35b341561037357600080fd5b61037b6108cb565b604051808215151515815260200191505060405180910390f35b34156103a057600080fd5b6103a86108dc565b6040518082815260200191505060405180910390f35b34156103c957600080fd5b6103d1610a18565b6040518082815260200191505060405180910390f35b610413600480803573ffffffffffffffffffffffffffffffffffffffff1690602001909190505061051f565b005b341561042057600080fd5b610428610a1e565b604051808215151515815260200191505060405180910390f35b341561044d57600080fd5b610455610a2a565b005b341561046257600080fd5b61048e600480803573ffffffffffffffffffffffffffffffffffffffff16906020019091905050610a9d565b005b341561049b57600080fd5b6104d0600480803573ffffffffffffffffffffffffffffffffffffffff16906020019091908035906020019091905050610bf2565b005b34156104dd57600080fd5b610509600480803573ffffffffffffffffffffffffffffffffffffffff16906020019091905050610c95565b6040518082815260200191505060405180910390f35b6000806000600260003373ffffffffffffffffffffffffffffffffffffffff1673ffffffffffffffffffffffffffffffffffffffff1681526020019081526020016000205411151561057057600080fd5b600073ffffffffffffffffffffffffffffffffffffffff16600160009054906101000a900473ffffffffffffffffffffffffffffffffffffffff1673ffffffffffffffffffffffffffffffffffffffff16141515156105ce57600080fd5b600073ffffffffffffffffffffffffffffffffffffffff168373ffffffffffffffffffffffffffffffffffffffff161415151561060a57600080fd5b610612610cad565b151561061d57600080fd5b34915061063560065483610ce090919063ffffffff16565b905061064c82600754610d1b90919063ffffffff16565b60078190555061065c8382610d39565b8273ffffffffffffffffffffffffffffffffffffffff163373ffffffffffffffffffffffffffffffffffffffff167f623b3804fa71d67900d064613da8f94b9617215ee90799290593e1745087ad188484604051808381526020018281526020019250505060405180910390a36106d1610e85565b505050565b600160149054906101000a900460ff1681565b6000809054906101000a900473ffffffffffffffffffffffffffffffffffffffff1673ffffffffffffffffffffffffffffffffffffffff163373ffffffffffffffffffffffffffffffffffffffff1614151561074457600080fd5b600073ffffffffffffffffffffffffffffffffffffffff16600160009054906101000a900473ffffffffffffffffffffffffffffffffffffffff1673ffffffffffffffffffffffffffffffffffffffff161415156107a157600080fd5b80600160006101000a81548173ffffffffffffffffffffffffffffffffffffffff021916908373ffffffffffffffffffffffffffffffffffffffff16021790555050565b60065481565b60045481565b60075481565b600560009054906101000a900473ffffffffffffffffffffffffffffffffffffffff1681565b600080600260008473ffffffffffffffffffffffffffffffffffffffff1673ffffffffffffffffffffffffffffffffffffffff168152602001908152602001600020549050600081111561087357809150610874565b5b50919050565b60035481565b6000809054906101000a900473ffffffffffffffffffffffffffffffffffffffff1681565b600160009054906101000a900473ffffffffffffffffffffffffffffffffffffffff1681565b6000806108d66108dc565b14905090565b6000600160009054906101000a900473ffffffffffffffffffffffffffffffffffffffff1673ffffffffffffffffffffffffffffffffffffffff1663dd62ed3e6000809054906101000a900473ffffffffffffffffffffffffffffffffffffffff16306000604051602001526040518363ffffffff167c0100000000000000000000000000000000000000000000000000000000028152600401808373ffffffffffffffffffffffffffffffffffffffff1673ffffffffffffffffffffffffffffffffffffffff1681526020018273ffffffffffffffffffffffffffffffffffffffff1673ffffffffffffffffffffffffffffffffffffffff16815260200192505050602060405180830381600087803b15156109f857600080fd5b6102c65a03f11515610a0957600080fd5b50505060405180519050905090565b60085481565b60006004544211905090565b600073ffffffffffffffffffffffffffffffffffffffff16600160009054906101000a900473ffffffffffffffffffffffffffffffffffffffff1673ffffffffffffffffffffffffffffffffffffffff1614151515610a8857600080fd5b42600381905550621a5e004201600481905550565b6000809054906101000a900473ffffffffffffffffffffffffffffffffffffffff1673ffffffffffffffffffffffffffffffffffffffff163373ffffffffffffffffffffffffffffffffffffffff16141515610af857600080fd5b600073ffffffffffffffffffffffffffffffffffffffff168173ffffffffffffffffffffffffffffffffffffffff1614151515610b3457600080fd5b8073ffffffffffffffffffffffffffffffffffffffff166000809054906101000a900473ffffffffffffffffffffffffffffffffffffffff1673ffffffffffffffffffffffffffffffffffffffff167f8be0079c531659141344cd1fd0a4f28419497f9722a3daafe3b4186f6b6457e060405160405180910390a3806000806101000a81548173ffffffffffffffffffffffffffffffffffffffff021916908373ffffffffffffffffffffffffffffffffffffffff16021790555050565b6000809054906101000a900473ffffffffffffffffffffffffffffffffffffffff1673ffffffffffffffffffffffffffffffffffffffff163373ffffffffffffffffffffffffffffffffffffffff16141515610c4d57600080fd5b80600260008473ffffffffffffffffffffffffffffffffffffffff1673ffffffffffffffffffffffffffffffffffffffff168152602001908152602001600020819055505050565b60026020528060005260406000206000915090505481565b60008060006003544210158015610cc657506004544211155b915060003414159050818015610cd95750805b9250505090565b6000806000841415610cf55760009150610d14565b8284029050828482811515610d0657fe5b04141515610d1057fe5b8091505b5092915050565b6000808284019050838110151515610d2f57fe5b8091505092915050565b600160009054906101000a900473ffffffffffffffffffffffffffffffffffffffff1673ffffffffffffffffffffffffffffffffffffffff166323b872dd6000809054906101000a900473ffffffffffffffffffffffffffffffffffffffff1684846000604051602001526040518463ffffffff167c0100000000000000000000000000000000000000000000000000000000028152600401808473ffffffffffffffffffffffffffffffffffffffff1673ffffffffffffffffffffffffffffffffffffffff1681526020018373ffffffffffffffffffffffffffffffffffffffff1673ffffffffffffffffffffffffffffffffffffffff1681526020018281526020019350505050602060405180830381600087803b1515610e5b57600080fd5b6102c65a03f11515610e6c57600080fd5b505050604051805190501515610e8157600080fd5b5050565b600560009054906101000a900473ffffffffffffffffffffffffffffffffffffffff1673ffffffffffffffffffffffffffffffffffffffff166108fc349081150290604051600060405180830381858888f193505050501515610ee757600080fd5b5600a165627a7a723058207e4324d06b8ef0ec41c39b2523dd8936abc6283ebd55ef762358bf97eeabba400029",
  "source": "pragma solidity ^0.4.18;\n\nimport '../node_modules/zeppelin-solidity/contracts/token/ERC20.sol';\nimport '../node_modules/zeppelin-solidity/contracts/math/SafeMath.sol';\nimport '../node_modules/zeppelin-solidity/contracts/ownership/Ownable.sol';\n\n/**\n * @title Crowdsale\n * @dev Crowdsale is a base contract for managing a token crowdsale.\n * Crowdsales have a start and end timestamps, where investors can make\n * token purchases and the crowdsale will assign them tokens based\n * on a token per ETH rate. Funds collected are forwarded to a wallet\n * as they arrive.\n */\ncontract ViolaCrowdSale is Ownable {\n  using SafeMath for uint256;\n\n  enum State { Preparing, NotStarted, Active, Refunding, Ended, Stopped }\n\n  // The token being sold\n  ERC20 public myToken;\n\n  //To tie different address to same customer\n  bool public requireCustomerId;\n\n  //For whitelisted\n  mapping(address=>uint) public addressCap;\n\n  // start and end timestamps where investments are allowed (both inclusive)\n  uint256 public startTime;\n  uint256 public endTime;\n\n  // address where funds are collected\n  address public wallet;\n\n  // how many token units a buyer gets per wei\n  uint256 public rate;\n\n  // amount of raised money in wei\n  uint256 public weiRaised;\n\n  // when to refresh cap\n  uint public capRefreshPeriod = 86400;\n\n  /**\n   * event for token purchase logging\n   * @param purchaser who paid for the tokens\n   * @param beneficiary who got the tokens\n   * @param value weis paid for purchase\n   * @param amount amount of tokens purchased\n   */\n  event TokenPurchase(address indexed purchaser, address indexed beneficiary, uint256 value, uint256 amount);\n\n\n  function ViolaCrowdSale(uint256 _startTime, uint256 _endTime, uint256 _rate, address _wallet) public {\n    require(_startTime >= now);\n    require(_endTime >= _startTime);\n    require(_rate > 0);\n    require(_wallet != address(0));\n\n    startTime = _startTime;\n    endTime = _endTime;\n    rate = _rate;\n    wallet = _wallet;\n  }\n\n  function setToken(address _tokenAddress) onlyOwner external {\n    require(address(myToken) == address(0));    \n        myToken = ERC20(_tokenAddress);\n    }\n\n  function setWhitelistAddress( address _user, uint _cap ) onlyOwner external {\n        addressCap[_user] = _cap;\n        //add event\n    }\n\n  function getAddressCap( address _user ) constant public returns(uint) {\n        uint cap = addressCap[_user];\n        if (cap > 0) {\n          return cap;\n        }\n    }\n\n  // fallback function can be used to buy tokens\n  function () external payable {\n    buyTokens(msg.sender);\n  }\n\n  function startCrowdSale() external {\n    require(myToken != address(0));\n    startTime = now;\n    endTime = now + (86400 * 20); //20 days\n  }\n\n  // low level token purchase function\n  function buyTokens(address beneficiary) public payable {\n    require(addressCap[msg.sender] > 0);\n    require(myToken != address(0));\n    require(beneficiary != address(0));\n    require(validPurchase());\n\n    uint256 weiAmount = msg.value;\n\n    // calculate token amount to be created\n    uint256 tokens = weiAmount.mul(rate);\n\n    // update state\n    weiRaised = weiRaised.add(weiAmount);\n\n    assignTokens(beneficiary,tokens);\n\n    TokenPurchase(msg.sender, beneficiary, weiAmount, tokens);\n\n    forwardFunds();\n  }\n\n  // send ether to the fund collection wallet\n  // override to create custom fund forwarding mechanisms\n  function forwardFunds() internal {\n    wallet.transfer(msg.value);\n  }\n\n  // @return true if the transaction can buy tokens\n  function validPurchase() internal view returns (bool) {\n    bool withinPeriod = now >= startTime && now <= endTime;\n    bool nonZeroPurchase = msg.value != 0;\n    return withinPeriod && nonZeroPurchase;\n  }\n\n  // @return true if crowdsale event has ended\n  function hasEnded() public view returns (bool) {\n    return now > endTime;\n  }\n\n  function getTokensLeft() public constant returns (uint) {\n    return myToken.allowance(owner, this);\n  }\n  function assignTokens(address receiver, uint tokenAmount) internal {\n     require(myToken.transferFrom(owner, receiver, tokenAmount));\n  }\n  function isCrowdsaleFull() public constant returns (bool) {\n    return getTokensLeft() == 0;\n  }\n}\n",
  "sourcePath": "/Users/esmund/Voila-Ethereum/contracts/ViolaCrowdSale.sol",
  "compiler": {
    "name": "solc",
    "version": "0.4.18+commit.9cf6e910.Emscripten.clang"
  },
  "schemaVersion": "1.0.1",
  "updatedAt": "2017-12-27T09:42:29.981Z"
}